{
  "contractName": "Voting",
  "abi": [
    {
      "constant": true,
      "inputs": [
        {
          "name": "",
          "type": "address"
        }
      ],
      "name": "results",
      "outputs": [
        {
          "name": "",
          "type": "uint256"
        }
      ],
      "payable": false,
      "stateMutability": "view",
      "type": "function"
    },
    {
      "constant": false,
      "inputs": [
        {
          "name": "_voteName",
          "type": "string"
        },
        {
          "name": "_voteDescription",
          "type": "string"
        }
      ],
      "name": "createVote",
      "outputs": [],
      "payable": false,
      "stateMutability": "nonpayable",
      "type": "function"
    },
    {
      "constant": true,
      "inputs": [],
      "name": "getVoteDetails",
      "outputs": [
        {
          "name": "_owner",
          "type": "address"
        },
        {
          "name": "_name",
          "type": "string"
        },
        {
          "name": "_description",
          "type": "string"
        }
      ],
      "payable": false,
      "stateMutability": "view",
      "type": "function"
    },
    {
      "constant": false,
      "inputs": [
        {
          "name": "_vote",
          "type": "uint256"
        }
      ],
      "name": "castVote",
      "outputs": [],
      "payable": false,
      "stateMutability": "nonpayable",
      "type": "function"
    },
    {
      "constant": false,
      "inputs": [],
      "name": "closeVote",
      "outputs": [],
      "payable": false,
      "stateMutability": "nonpayable",
      "type": "function"
    },
    {
      "constant": true,
      "inputs": [],
      "name": "getResults",
      "outputs": [
        {
          "name": "",
          "type": "bool"
        }
      ],
      "payable": false,
      "stateMutability": "view",
      "type": "function"
    }
  ],
  "bytecode": "0x60606040526000600860006101000a81548160ff021916908315150217905550341561002a57600080fd5b610889806100396000396000f300606060405260043610610078576000357c0100000000000000000000000000000000000000000000000000000000900463ffffffff168063134c39cc1461007d5780632e57ce5c146101aa578063329d33461461024a5780633eb76b9c1461025f5780634717f97c14610282578063ef378f62146102af575b600080fd5b341561008857600080fd5b6100906102fc565b604051808473ffffffffffffffffffffffffffffffffffffffff1673ffffffffffffffffffffffffffffffffffffffff1681526020018060200180602001838103835285818151815260200191508051906020019080838360005b838110156101065780820151818401526020810190506100eb565b50505050905090810190601f1680156101335780820380516001836020036101000a031916815260200191505b50838103825284818151815260200191508051906020019080838360005b8381101561016c578082015181840152602081019050610151565b50505050905090810190601f1680156101995780820380516001836020036101000a031916815260200191505b509550505050505060405180910390f35b34156101b557600080fd5b610248600480803590602001908201803590602001908080601f0160208091040260200160405190810160405280939291908181526020018383808284378201915050505050509190803590602001908201803590602001908080601f01602080910402602001604051908101604052809392919081815260200183838082843782019150505050505091905050610477565b005b341561025557600080fd5b61025d61050c565b005b341561026a57600080fd5b610280600480803590602001909190505061059f565b005b341561028d57600080fd5b610295610762565b604051808215151515815260200191505060405180910390f35b34156102ba57600080fd5b6102e6600480803573ffffffffffffffffffffffffffffffffffffffff1690602001909190505061078c565b6040518082815260200191505060405180910390f35b60006103066107a4565b61030e6107a4565b6000809054906101000a900473ffffffffffffffffffffffffffffffffffffffff1660016002818054600181600116156101000203166002900480601f0160208091040260200160405190810160405280929190818152602001828054600181600116156101000203166002900480156103c95780601f1061039e576101008083540402835291602001916103c9565b820191906000526020600020905b8154815290600101906020018083116103ac57829003601f168201915b50505050509150808054600181600116156101000203166002900480601f0160208091040260200160405190810160405280929190818152602001828054600181600116156101000203166002900480156104655780601f1061043a57610100808354040283529160200191610465565b820191906000526020600020905b81548152906001019060200180831161044857829003601f168201915b50505050509050925092509250909192565b336000806101000a81548173ffffffffffffffffffffffffffffffffffffffff021916908373ffffffffffffffffffffffffffffffffffffffff16021790555081600190805190602001906104cd9291906107b8565b5080600290805190602001906104e49291906107b8565b506001600860006101000a81548160ff02191690831515021790555060006007819055505050565b6000809054906101000a900473ffffffffffffffffffffffffffffffffffffffff1673ffffffffffffffffffffffffffffffffffffffff163373ffffffffffffffffffffffffffffffffffffffff1614151561056757600080fd5b600860009054906101000a900460ff16151561058257600080fd5b6000600860006101000a81548160ff021916908315150217905550565b600860009054906101000a900460ff1615156105ba57600080fd5b6000600360003373ffffffffffffffffffffffffffffffffffffffff1673ffffffffffffffffffffffffffffffffffffffff16815260200190815260200160002060009054906101000a900473ffffffffffffffffffffffffffffffffffffffff1673ffffffffffffffffffffffffffffffffffffffff1614151561063e57600080fd5b33600360003373ffffffffffffffffffffffffffffffffffffffff1673ffffffffffffffffffffffffffffffffffffffff16815260200190815260200160002060006101000a81548173ffffffffffffffffffffffffffffffffffffffff021916908373ffffffffffffffffffffffffffffffffffffffff16021790555060018114806106cb5750600081145b15156106d657600080fd5b80600460003373ffffffffffffffffffffffffffffffffffffffff1673ffffffffffffffffffffffffffffffffffffffff16815260200190815260200160002081905550600181141561073a5760056000815480929190600101919050555061074d565b6006600081548092919060010191905055505b60076000815480929190600101919050555050565b6000600860009054906101000a900460ff1615151561078057600080fd5b60065460055411905090565b60046020528060005260406000206000915090505481565b602060405190810160405280600081525090565b828054600181600116156101000203166002900490600052602060002090601f016020900481019282601f106107f957805160ff1916838001178555610827565b82800160010185558215610827579182015b8281111561082657825182559160200191906001019061080b565b5b5090506108349190610838565b5090565b61085a91905b8082111561085657600081600090555060010161083e565b5090565b905600a165627a7a7230582083f3020e03104cbc0a7c7ee37967c3ff79f8315a413d6d4dc251ade56fc0c8d00029",
  "source": "pragma solidity ^0.4.17;\r\n\r\n/*Simple contract which allows users to vote in a binary vote*/\r\ncontract Voting {\r\n\r\n//state variables\r\naddress owner;\r\nstring voteName;\r\nstring voteDescription;\r\n// keep track of all voters\r\nmapping(address => address) voters;\r\n//track voters and thier votes\r\nmapping(address => uint) public results;\r\nuint currentVotesFor;\r\nuint currentVotesAgainst;\r\nuint numberOfVoters;\r\nbool voteOngoing = false;\r\n\r\n//modifiers\r\nmodifier onlyOwner(){\r\n  require(msg.sender == owner);\r\n  _;\r\n}\r\n\r\nmodifier votingOpen(){\r\n  require(voteOngoing);\r\n  _;\r\n}\r\n\r\nmodifier votingClosed(){\r\n  require(!voteOngoing);\r\n  _;\r\n}\r\n\r\n// add a vote\r\nfunction createVote(string _voteName, string _voteDescription) public {\r\n  owner = msg.sender;\r\n  voteName = _voteName;\r\n  voteDescription = _voteDescription;\r\n  voteOngoing = true;\r\n  numberOfVoters = 0;\r\n}\r\n\r\nfunction getVoteDetails() public view returns(address _owner, string _name, string _description){\r\n  return (owner, voteName, voteDescription);\r\n}\r\n\r\n//Let a voter cast thier vote. 1 is a vote for and 0 is a vote against\r\nfunction castVote(uint _vote) public votingOpen(){\r\n  // check address has not already registerd a vote\r\n  require(voters[msg.sender] == 0x0);\r\n  // add address into voters mapping\r\n  voters[msg.sender] = msg.sender;\r\n  //ensure a valid value is passed in the argument\r\n  require(_vote == 1 || _vote == 0);\r\n  // register the vote\r\n  results[msg.sender] = _vote;\r\n  // track the results\r\n  if(_vote == 1){\r\n    currentVotesFor++;\r\n  } else {\r\n    currentVotesAgainst++;\r\n  }\r\n  numberOfVoters++;\r\n}\r\n\r\n// allow the owner to close the voting\r\nfunction closeVote() public onlyOwner() votingOpen(){\r\n  voteOngoing = false;\r\n}\r\n\r\n// get the results\r\nfunction getResults()  public view votingClosed() returns (bool){\r\n    return (currentVotesFor>currentVotesAgainst);\r\n}\r\n\r\n\r\n}\r\n",
  "sourcePath": "C:\\Users\\HM17611\\DappDevelopment\\VotingProject\\contracts\\Voting.sol",
  "compiler": {
    "name": "solc",
    "version": "0.4.19+commit.c4cbbb05.Emscripten.clang"
  },
  "schemaVersion": "2.0.0",
  "updatedAt": "2018-03-19T22:15:49.695Z"
}