{
  "contractName": "Voting",
  "abi": [
    {
      "constant": true,
      "inputs": [],
      "name": "voteCounter",
      "outputs": [
        {
          "name": "",
          "type": "uint256"
        }
      ],
      "payable": false,
      "stateMutability": "view",
      "type": "function"
    },
    {
      "constant": true,
      "inputs": [
        {
          "name": "",
          "type": "uint256"
        }
      ],
      "name": "votes",
      "outputs": [
        {
          "name": "voteId",
          "type": "uint256"
        },
        {
          "name": "owner",
          "type": "address"
        },
        {
          "name": "voteName",
          "type": "string"
        },
        {
          "name": "voteDescription",
          "type": "string"
        },
        {
          "name": "currentVotesFor",
          "type": "uint256"
        },
        {
          "name": "currentVotesAgainst",
          "type": "uint256"
        },
        {
          "name": "numberOfVoters",
          "type": "uint256"
        },
        {
          "name": "voteOngoing",
          "type": "bool"
        }
      ],
      "payable": false,
      "stateMutability": "view",
      "type": "function"
    },
    {
      "constant": false,
      "inputs": [
        {
          "name": "_voteName",
          "type": "string"
        },
        {
          "name": "_voteDescription",
          "type": "string"
        }
      ],
      "name": "createVote",
      "outputs": [],
      "payable": false,
      "stateMutability": "nonpayable",
      "type": "function"
    },
    {
      "constant": true,
      "inputs": [],
      "name": "getVoteDetails",
      "outputs": [
        {
          "name": "",
          "type": "bool"
        }
      ],
      "payable": false,
      "stateMutability": "view",
      "type": "function"
    },
    {
      "constant": true,
      "inputs": [
        {
          "name": "_voteId",
          "type": "uint256"
        }
      ],
      "name": "getVoteBallot",
      "outputs": [
        {
          "name": "",
          "type": "address"
        },
        {
          "name": "",
          "type": "uint256"
        },
        {
          "name": "",
          "type": "uint256"
        }
      ],
      "payable": false,
      "stateMutability": "view",
      "type": "function"
    },
    {
      "constant": false,
      "inputs": [
        {
          "name": "_voteId",
          "type": "uint256"
        },
        {
          "name": "_option",
          "type": "uint256"
        }
      ],
      "name": "castVote",
      "outputs": [],
      "payable": false,
      "stateMutability": "nonpayable",
      "type": "function"
    },
    {
      "constant": false,
      "inputs": [
        {
          "name": "_voteId",
          "type": "uint256"
        }
      ],
      "name": "closeVote",
      "outputs": [],
      "payable": false,
      "stateMutability": "nonpayable",
      "type": "function"
    },
    {
      "constant": true,
      "inputs": [],
      "name": "getResults",
      "outputs": [
        {
          "name": "",
          "type": "bool"
        }
      ],
      "payable": false,
      "stateMutability": "view",
      "type": "function"
    }
  ],
  "bytecode": "0x6060604052341561000f57600080fd5b610be08061001e6000396000f30060606040526004361061008e576000357c0100000000000000000000000000000000000000000000000000000000900463ffffffff168063134c39cc146100935780632c0a3f89146100c05780632e57ce5c146100ec5780634717f97c1461018c578063599f36d1146101b95780635df81330146101e25780636e48a0351461037e578063e239d236146103a1575b600080fd5b341561009e57600080fd5b6100a6610412565b604051808215151515815260200191505060405180910390f35b34156100cb57600080fd5b6100ea600480803590602001909190803590602001909190505061041a565b005b34156100f757600080fd5b61018a600480803590602001908201803590602001908080601f0160208091040260200160405190810160405280939291908181526020018383808284378201915050505050509190803590602001908201803590602001908080601f01602080910402602001604051908101604052809392919081815260200183838082843782019150505050505091905050610677565b005b341561019757600080fd5b61019f6107c6565b604051808215151515815260200191505060405180910390f35b34156101c457600080fd5b6101cc6107ce565b6040518082815260200191505060405180910390f35b34156101ed57600080fd5b61020360048080359060200190919050506107d4565b604051808981526020018873ffffffffffffffffffffffffffffffffffffffff1673ffffffffffffffffffffffffffffffffffffffff1681526020018060200180602001878152602001868152602001858152602001841515151581526020018381038352898181546001816001161561010002031660029004815260200191508054600181600116156101000203166002900480156102e45780601f106102b9576101008083540402835291602001916102e4565b820191906000526020600020905b8154815290600101906020018083116102c757829003601f168201915b50508381038252888181546001816001161561010002031660029004815260200191508054600181600116156101000203166002900480156103675780601f1061033c57610100808354040283529160200191610367565b820191906000526020600020905b81548152906001019060200180831161034a57829003601f168201915b50509a505050505050505050505060405180910390f35b341561038957600080fd5b61039f6004808035906020019091905050610847565b005b34156103ac57600080fd5b6103c26004808035906020019091905050610970565b604051808473ffffffffffffffffffffffffffffffffffffffff1673ffffffffffffffffffffffffffffffffffffffff168152602001838152602001828152602001935050505060405180910390f35b600080905090565b60018114806104295750600081145b151561043457600080fd5b600080600084815260200190815260200160002060010160009054906101000a900473ffffffffffffffffffffffffffffffffffffffff1673ffffffffffffffffffffffffffffffffffffffff161415151561048f57600080fd5b60008083815260200190815260200160002060070160009054906101000a900460ff1615156104bd57600080fd5b600080600084815260200190815260200160002060080160003373ffffffffffffffffffffffffffffffffffffffff1673ffffffffffffffffffffffffffffffffffffffff16815260200190815260200160002060000160009054906101000a900473ffffffffffffffffffffffffffffffffffffffff1673ffffffffffffffffffffffffffffffffffffffff1614151561055757600080fd5b600080838152602001908152602001600020600601600081548092919060010191905055506060604051908101604052803373ffffffffffffffffffffffffffffffffffffffff1681526020016000808581526020019081526020016000206006015481526020018281525060008084815260200190815260200160002060080160003373ffffffffffffffffffffffffffffffffffffffff1673ffffffffffffffffffffffffffffffffffffffff16815260200190815260200160002060008201518160000160006101000a81548173ffffffffffffffffffffffffffffffffffffffff021916908373ffffffffffffffffffffffffffffffffffffffff16021790555060208201518160010155604082015181600201559050505050565b6001600081548092919060010191905055506101006040519081016040528060015481526020013373ffffffffffffffffffffffffffffffffffffffff1681526020018381526020018281526020016000815260200160008152602001600081526020016001151581525060008060015481526020019081526020016000206000820151816000015560208201518160010160006101000a81548173ffffffffffffffffffffffffffffffffffffffff021916908373ffffffffffffffffffffffffffffffffffffffff1602179055506040820151816002019080519060200190610763929190610b0f565b506060820151816003019080519060200190610780929190610b0f565b506080820151816004015560a0820151816005015560c0820151816006015560e08201518160070160006101000a81548160ff0219169083151502179055509050505050565b600080905090565b60015481565b60006020528060005260406000206000915090508060000154908060010160009054906101000a900473ffffffffffffffffffffffffffffffffffffffff1690806002019080600301908060040154908060050154908060060154908060070160009054906101000a900460ff16905088565b600080600083815260200190815260200160002060010160009054906101000a900473ffffffffffffffffffffffffffffffffffffffff1673ffffffffffffffffffffffffffffffffffffffff16141515156108a257600080fd5b60008082815260200190815260200160002060070160009054906101000a900460ff1615156108d057600080fd5b3373ffffffffffffffffffffffffffffffffffffffff1660008083815260200190815260200160002060010160009054906101000a900473ffffffffffffffffffffffffffffffffffffffff1673ffffffffffffffffffffffffffffffffffffffff1614151561093f57600080fd5b600080600083815260200190815260200160002060070160006101000a81548160ff02191690831515021790555050565b600080600080600080600080600089815260200190815260200160002060010160009054906101000a900473ffffffffffffffffffffffffffffffffffffffff1673ffffffffffffffffffffffffffffffffffffffff16141515156109d457600080fd5b60008088815260200190815260200160002060080160003373ffffffffffffffffffffffffffffffffffffffff1673ffffffffffffffffffffffffffffffffffffffff16815260200190815260200160002060000160009054906101000a900473ffffffffffffffffffffffffffffffffffffffff16925060008088815260200190815260200160002060080160003373ffffffffffffffffffffffffffffffffffffffff1673ffffffffffffffffffffffffffffffffffffffff16815260200190815260200160002060010154915060008088815260200190815260200160002060080160003373ffffffffffffffffffffffffffffffffffffffff1673ffffffffffffffffffffffffffffffffffffffff1681526020019081526020016000206002015490508282829550955095505050509193909250565b828054600181600116156101000203166002900490600052602060002090601f016020900481019282601f10610b5057805160ff1916838001178555610b7e565b82800160010185558215610b7e579182015b82811115610b7d578251825591602001919060010190610b62565b5b509050610b8b9190610b8f565b5090565b610bb191905b80821115610bad576000816000905550600101610b95565b5090565b905600a165627a7a7230582094afd4abfe1db187fe768c055f71ada047735c35338e1bbe1ee269e2868b2c880029",
  "source": "pragma solidity ^0.4.17;\r\n\r\n/*Simple contract which allows users to vote in a binary vote*/\r\ncontract Voting {\r\n\r\n// Structures used in the contract\r\nstruct Ballot{\r\n    address voter;\r\n    uint ballotID;\r\n    uint result;\r\n  }\r\n\r\nstruct Vote{\r\n  uint voteId;\r\n  address owner;\r\n  string voteName;\r\n  string voteDescription;\r\n  uint currentVotesFor;\r\n  uint currentVotesAgainst;\r\n  uint numberOfVoters;\r\n  bool voteOngoing;\r\n  //Map voters to thier votes\r\n  mapping(address => Ballot) ballots;\r\n}\r\n\r\n//state variables\r\n\r\n//Keep track of all Votes\r\nmapping(uint => Vote) public votes;\r\n\r\n//counter to use as unique id\r\nuint public voteCounter;\r\n\r\n//modifiers\r\n\r\n\r\n// add a vote\r\nfunction createVote(string _voteName, string _voteDescription) public {\r\n  voteCounter++;\r\n  votes[voteCounter] = Vote(\r\n    voteCounter,\r\n    msg.sender,\r\n    _voteName,\r\n    _voteDescription,\r\n    0,\r\n    0,\r\n    0,\r\n    true\r\n    );\r\n\r\n}\r\n\r\nfunction getVoteDetails() public view returns(bool){\r\n  return false;\r\n}\r\n\r\nfunction getVoteBallot(uint _voteId) public view returns(address, uint, uint){\r\n  // ensure vote exists\r\n  require(votes[_voteId].owner != 0x0);\r\n  address retVoter = votes[_voteId].ballots[msg.sender].voter;\r\n  uint retBallotid = votes[_voteId].ballots[msg.sender].ballotID;\r\n  uint retResult = votes[_voteId].ballots[msg.sender].result;\r\n  return (retVoter, retBallotid, retResult);\r\n}\r\n\r\n//Let a voter cast thier vote. 1 is a vote for and 0 is a vote against\r\nfunction castVote(uint _voteId, uint _option) public {\r\n  //ensure a valid value is passed in the argument\r\n  require(_option == 1 || _option == 0);\r\n  // ensure vote exists by checking that the owner is set\r\n  require(votes[_voteId].owner != 0x0);\r\n  //ensure the vote is open\r\n  require(votes[_voteId].voteOngoing);\r\n  // ensure the voter has not already cast a vote\r\n  require(votes[_voteId].ballots[msg.sender].voter == 0x0);\r\n\r\n  /*register the vote in the voting mapping*/\r\n  //increment the number of numberOfVoters\r\n  votes[_voteId].numberOfVoters++;\r\n  //register the vote\r\n  votes[_voteId].ballots[msg.sender] = Ballot(\r\n    msg.sender,\r\n    votes[_voteId].numberOfVoters,\r\n    _option\r\n    );\r\n\r\n  // track the results TODO\r\n}\r\n\r\n// allow the owner to close the voting\r\nfunction closeVote(uint _voteId) public {\r\n  // ensure vote exists by checking that the owner is set\r\n  require(votes[_voteId].owner != 0x0);\r\n  //ensure the vote not already closed\r\n  require(votes[_voteId].voteOngoing);\r\n  //ensure the sender is the owner of the vote\r\n  require(votes[_voteId].owner == msg.sender);\r\n\r\n  //close the vote\r\n  votes[_voteId].voteOngoing = false;\r\n}\r\n\r\n// TODO\r\nfunction getResults()  public view  returns (bool){\r\n    return (false);\r\n}\r\n\r\n\r\n}\r\n",
  "sourcePath": "C:\\Users\\HM17611\\DappDevelopment\\VotingProject\\contracts\\Voting.sol",
  "compiler": {
    "name": "solc",
    "version": "0.4.19+commit.c4cbbb05.Emscripten.clang"
  },
  "schemaVersion": "2.0.0",
  "updatedAt": "2018-04-11T20:25:22.545Z"
}