{
  "contractName": "Voting",
  "abi": [
    {
      "constant": true,
      "inputs": [
        {
          "name": "",
          "type": "address"
        }
      ],
      "name": "results",
      "outputs": [
        {
          "name": "",
          "type": "uint256"
        }
      ],
      "payable": false,
      "stateMutability": "view",
      "type": "function"
    },
    {
      "constant": false,
      "inputs": [
        {
          "name": "_voteName",
          "type": "string"
        },
        {
          "name": "_voteDescription",
          "type": "string"
        }
      ],
      "name": "addVote",
      "outputs": [],
      "payable": false,
      "stateMutability": "nonpayable",
      "type": "function"
    },
    {
      "constant": false,
      "inputs": [
        {
          "name": "_vote",
          "type": "uint256"
        }
      ],
      "name": "castVote",
      "outputs": [],
      "payable": false,
      "stateMutability": "nonpayable",
      "type": "function"
    },
    {
      "constant": false,
      "inputs": [],
      "name": "closeVote",
      "outputs": [],
      "payable": false,
      "stateMutability": "nonpayable",
      "type": "function"
    },
    {
      "constant": true,
      "inputs": [],
      "name": "getResults",
      "outputs": [
        {
          "name": "",
          "type": "bool"
        }
      ],
      "payable": false,
      "stateMutability": "view",
      "type": "function"
    }
  ],
  "bytecode": "0x60606040526000600860006101000a81548160ff021916908315150217905550341561002a57600080fd5b6105c2806100396000396000f30060606040526004361061006d576000357c0100000000000000000000000000000000000000000000000000000000900463ffffffff168063329d3346146100725780633eb76b9c146100875780634717f97c146100aa578063bae26f4d146100d7578063ef378f6214610177575b600080fd5b341561007d57600080fd5b6100856101c4565b005b341561009257600080fd5b6100a86004808035906020019091905050610257565b005b34156100b557600080fd5b6100bd61041a565b604051808215151515815260200191505060405180910390f35b34156100e257600080fd5b610175600480803590602001908201803590602001908080601f0160208091040260200160405190810160405280939291908181526020018383808284378201915050505050509190803590602001908201803590602001908080601f01602080910402602001604051908101604052809392919081815260200183838082843782019150505050505091905050610444565b005b341561018257600080fd5b6101ae600480803573ffffffffffffffffffffffffffffffffffffffff169060200190919050506104d9565b6040518082815260200191505060405180910390f35b6000809054906101000a900473ffffffffffffffffffffffffffffffffffffffff1673ffffffffffffffffffffffffffffffffffffffff163373ffffffffffffffffffffffffffffffffffffffff1614151561021f57600080fd5b600860009054906101000a900460ff16151561023a57600080fd5b6000600860006101000a81548160ff021916908315150217905550565b600860009054906101000a900460ff16151561027257600080fd5b6000600360003373ffffffffffffffffffffffffffffffffffffffff1673ffffffffffffffffffffffffffffffffffffffff16815260200190815260200160002060009054906101000a900473ffffffffffffffffffffffffffffffffffffffff1673ffffffffffffffffffffffffffffffffffffffff161415156102f657600080fd5b33600360003373ffffffffffffffffffffffffffffffffffffffff1673ffffffffffffffffffffffffffffffffffffffff16815260200190815260200160002060006101000a81548173ffffffffffffffffffffffffffffffffffffffff021916908373ffffffffffffffffffffffffffffffffffffffff16021790555060018114806103835750600081145b151561038e57600080fd5b80600460003373ffffffffffffffffffffffffffffffffffffffff1673ffffffffffffffffffffffffffffffffffffffff1681526020019081526020016000208190555060018114156103f257600560008154809291906001019190505550610405565b6006600081548092919060010191905055505b60076000815480929190600101919050555050565b6000600860009054906101000a900460ff1615151561043857600080fd5b60065460055411905090565b336000806101000a81548173ffffffffffffffffffffffffffffffffffffffff021916908373ffffffffffffffffffffffffffffffffffffffff160217905550816001908051906020019061049a9291906104f1565b5080600290805190602001906104b19291906104f1565b506001600860006101000a81548160ff02191690831515021790555060006007819055505050565b60046020528060005260406000206000915090505481565b828054600181600116156101000203166002900490600052602060002090601f016020900481019282601f1061053257805160ff1916838001178555610560565b82800160010185558215610560579182015b8281111561055f578251825591602001919060010190610544565b5b50905061056d9190610571565b5090565b61059391905b8082111561058f576000816000905550600101610577565b5090565b905600a165627a7a72305820d0910fb7328bfc5a3d23d67ddd2b20fa444937e771b10ec54c39b84812ef862b0029",
  "source": "pragma solidity ^0.4.17;\r\n\r\n/*Simple contract which allows users to vote in a binary vote*/\r\ncontract Voting {\r\n\r\n//state variables\r\naddress owner;\r\nstring voteName;\r\nstring voteDescription;\r\n// keep track of all voters\r\nmapping(address => address) voters;\r\n//track voters and thier votes\r\nmapping(address => uint) public results;\r\nuint currentVotesFor;\r\nuint currentVotesAgainst;\r\nuint numberOfVoters;\r\nbool voteOngoing = false;\r\n\r\n//modifiers\r\nmodifier onlyOwner(){\r\n  require(msg.sender == owner);\r\n  _;\r\n}\r\n\r\nmodifier votingOpen(){\r\n  require(voteOngoing);\r\n  _;\r\n}\r\n\r\nmodifier votingClosed(){\r\n  require(!voteOngoing);\r\n  _;\r\n}\r\n\r\n// add a vote\r\nfunction addVote(string _voteName, string _voteDescription) public {\r\n  owner = msg.sender;\r\n  voteName = _voteName;\r\n  voteDescription = _voteDescription;\r\n  voteOngoing = true;\r\n  numberOfVoters = 0;\r\n}\r\n\r\n//Let a voter cast thier vote. 1 is a vote for and 0 is a vote against\r\nfunction castVote(uint _vote) public votingOpen(){\r\n  // check address has not already registerd a vote\r\n  require(voters[msg.sender] == 0x0);\r\n  // add address into voters mapping\r\n  voters[msg.sender] = msg.sender;\r\n  //ensure a valid value is passed in the argument\r\n  require(_vote == 1 || _vote == 0);\r\n  // register the vote\r\n  results[msg.sender] = _vote;\r\n  // track the results\r\n  if(_vote == 1){\r\n    currentVotesFor++;\r\n  } else {\r\n    currentVotesAgainst++;\r\n  }\r\n  numberOfVoters++;\r\n}\r\n\r\n// allow the owner to close the voting\r\nfunction closeVote() public onlyOwner() votingOpen(){\r\n  voteOngoing = false;\r\n}\r\n\r\n// get the results\r\nfunction getResults()  public view votingClosed() returns (bool){\r\n    return (currentVotesFor>currentVotesAgainst);\r\n}\r\n\r\n\r\n}\r\n",
  "sourcePath": "C:\\Users\\HM17611\\DappDevelopment\\VotingProject\\contracts\\Voting.sol",
  "compiler": {
    "name": "solc",
    "version": "0.4.19+commit.c4cbbb05.Emscripten.clang"
  },
  "schemaVersion": "2.0.0",
  "updatedAt": "2018-03-15T21:56:21.751Z"
}